:100000000C94F2000C940F010C940F010C940F014E
:100010000C940F010C940F010C940F010C940F0120
:100020000C940F010C940F010C94BB190C94F9194A
:100030000C940F010C940F010C940F010C940F0100
:100040000C940F010C940F010C940F010C940F01F0
:100050000C942E1C0C941C1D0C940F010C940F017D
:100060000C940F010C940F010C940F010C940F01D0
:100070000C940F010C941F010C940F010C940F01B0
:100080000C940F010C940F010C940F010C940F01B0
:100090000C940F010C940F010C940F010C940F01A0
:1000A0000C940F010C940F010C940F0156175E175E
:1000B000C118D017C118C118C118B818C118C11873
:1000C000C118C118C118C118C118C118C118C11868
:1000D000C118C118C118C118C118C118C118C11858
:1000E000C118C118C118C118C118C118C118C11848
:1000F000C118C118C118C118C118C118C118C11838
:10010000C118C118C118C118C118C118C118C11827
:10011000611867187A188D18A31800010000C7012C
:10012000120002000084014300030000800104016A
:100130000309046A011402030904520116030309A6
:100140000444010C0C03310032003300340035004C
:1001500000001603550053004200200053006500C4
:100160007200690061006C000000140359006F0008
:100170007500720020004E0061006D0065000000F7
:100180000403090409024300020100C0320904000B
:1001900000010202010005240010010524010101F3
:1001A000042402060524060001070582031000400E
:1001B00009040100020A00000007050302400000D4
:1001C000070584024000001201000202000010C076
:1001D000167A040001010203010001C112018036F8
:1001E0000181360011241FBECFEFDAE0DEBFCDBFA4
:1001F00013E0A0E0B1E0E2EAF6E402C005900D925F
:10020000A230B107D9F729E0A2E0B3E001C01D9206
:10021000A73AB207E1F70E94651C0C944F230C9497
:10022000000080E680937C0083E080937B0008954B
:100230008EEA80937A00089510927A0008951F92B2
:100240000F920FB60F9211242F933F934F935F930A
:100250006F937F938F939F93AF93BF93EF93FF938E
:10026000809179000E946701FF91EF91BF91AF915A
:100270009F918F917F916F915F914F913F912F91BE
:100280000F900FBE0F901F90189520910401309190
:1002900005013093240320932303309326072093F2
:1002A00025079093200380931F037093220360938C
:1002B00021030895809104019091050190932403F6
:1002C0008093230390932607809325070895E09158
:1002D0002303F09124039F012F5F3F4F30932403AA
:1002E0002093230380838091230390912403209102
:1002F0000201309103018217930731F4E0911F034B
:10030000F091200309950895209100013091010199
:100310008217930769F480910401909105019093ED
:10032000240380932303E0911F03F0912003099598
:100330000895CF93E0912507F0912607CF0101960C
:100340009093260780932507C08120910201309168
:1003500003018217930731F4E0912103F091220306
:10036000099514C020910001309101018217930773
:1003700069F4809104019091050190932607809380
:100380002507E0912103F091220309958C2FCF914D
:1003900008958091040190910501209125073091E5
:1003A00026078217930758F4309102012091030128
:1003B0009093260780932507832F922F08952091ED
:1003C00002013091030130932607209325070895F9
:1003D0008091040190910501209123033091240321
:1003E0008217930758F430910201209103019093F2
:1003F000240380932303832F922F089520910201D9
:100400003091030130932403209323030895CF9365
:10041000DF9342305105C0F0DB01FC019A01CD9120
:10042000DD91C193D1932250310922303105B8F7C3
:100430009A01225031092E7F2E5F3F4F820F931F6A
:10044000620F731F417055274115510549F0DB01BB
:10045000FC01480F591F9D919193E417F507D9F7B7
:10046000DF91CF910895CF93DF93EC01A881B981FB
:10047000109711F14C91413258F04A3349F1FD0186
:1004800031969F019191913228F09A33D1F704C0AF
:10049000942F9D019A3399F450E0CA01C097AD01A1
:1004A0004F5F5F4F2417350769F48230910568F478
:1004B0001296B983A8830EC08FEF9FEF0BC080E028
:1004C00090E008C08FEF9FEF05C08FEF9FEF02C055
:1004D0009D01E2CFDF91CF9108958F929F92AF92CD
:1004E000BF92CF92DF92EF92FF920F931F93CF9321
:1004F000DF93FC012481222309F446C0EC01C2A44D
:10050000D3A4E4A4F5A45C01FEE2AF0EB11C01E0AB
:1005100010E0A7019601B50189810E94C1168111E1
:1005200035C01C828E8D9F8DA8A1B9A1B701A601EF
:10053000481B590B6A0B7B0B8E899F89A88DB98D3F
:10054000481759076A077B0718F58B80912C82E0C2
:1005500088169104F8F08E899F89A88DB98DC80EF0
:10056000D91EEA1EFB1E01E010E0A7019601B501AD
:1005700089810E94C116E1E08E1A9108F1E08F1680
:10058000910449F780E007C080E005C081E003C026
:1005900080E001C080E0DF91CF911F910F91FF902B
:1005A000EF90DF90CF90BF90AF909F908F90089585
:1005B0008F929F92AF92BF92FF920F931F93CF9310
:1005C000DF93EC014A015B018AA59BA5ACA5BDA503
:1005D00084179507A607B707E9F0CE010E946D02C0
:1005E000F82E811118C001E010E0A5019401BE01B0
:1005F000625D7F4F89810E946B16882331F0FF2452
:10060000F39488248A94982C54018AA69BA6ACA6BD
:10061000BDA601C0F12C8F2DDF91CF911F910F91BD
:10062000FF90BF90AF909F908F900895CF93DF93EE
:10063000EC011C828FEF9FEFDC018AA79BA7ACA780
:10064000BDA7CE010E94D802811123C0FE01E45D46
:10065000FD4F8081918185359A4AE9F4E85CF1404B
:1006600080819181A281B381BB2786349144A445C6
:10067000B10599F0C058DF4F488159816A817B816B
:10068000772781E0463451446445710539F480E0B0
:1006900005C083E003C082E001C080E0DF91CF911C
:1006A00008950097C9F0DC01ED91FC911197309706
:1006B000A9F020812223A1F02681378112968D9105
:1006C0009C9113972817390769F481810E94641659
:1006D00080FF0AC089E0089589E0089589E00895BF
:1006E00089E0089589E0089580E008952F923F926F
:1006F0004F925F926F927F928F929F92AF92BF9232
:10070000CF92DF92EF92FF920F931F93CF93DF93DD
:10071000CDB7DEB76D970FB6F894DEBF0FBECDBF75
:100720006C01CB01B42ED6011D921C920E943302A3
:100730007C0199230CF404C2FC01EE0FFF1FEC5F57
:10074000FC4F008111810115110509F4FBC1F6016F
:1007500011830083D8018C91882369F011968C91C4
:100760000E94641680FD07C0BB2009F4EDC182FF22
:10077000EDC18AE08EC2F8011082E1828E2D0E94C6
:10078000911580FDE5C1BB2009F402C282FDE2C1E2
:10079000FFC18081882329F044805580668077805E
:1007A00004C04E2C5F2C672E762ED9014D925D929F
:1007B0006D927D929D0170964E175F0751F74E0125
:1007C000B1E18B0E911C6894772471F8F501C1900A
:1007D000D190E190F1905F01C114D104E104F104E2
:1007E00041F0B701A601C8010E941603811102C0A1
:1007F0000DC0872DA814B90449F703C0C12CD12C12
:100800007601833009F4A8C18111A8C1D801D99615
:100810008D919C91DA978115924009F0A1C1F80160
:10082000EC5BFF4F40805180612C712C41145104CE
:100830006104710429F43E96408051806280738087
:10084000F801468A578A608E718EA6ADA3838FEF1A
:100850008A0F823008F086C1F3ADF98B2F2FF80193
:100860002283222309F480C1822F90E09C01215031
:10087000310982239323892B09F078C1FF962080C8
:100880003180F80131862086C1018F709927892B2C
:1008900009F06EC1EF5BFF4F80809180A12CB12CDD
:1008A00081149104A104B10429F43D9680809180C3
:1008B000A280B380F80104ACF5ADE02D309709F4C7
:1008C00059C1B0E0A30192010E9427206A8F7B8F5B
:1008D0008C8F9D8F9F0140E050E02E8B3F8B488F87
:1008E000598FC101929582958F7089279F708927B2
:1008F000280F391F411D511DDA01C9012A8D3B8D79
:100900004C8D5D8D280F391F4A1F5B1F2A8B3B8B37
:100910004C8B5D8B82169306A406B50608F42CC199
:10092000C501B401621B730B840B950BE9892E2F53
:1009300030E040E050E00E94FF1FDA01C9012115BC
:1009400031054105510509F419C1263FFFE03F0774
:100950004105510518F0E2E0E98B02C0F1E0F98BA6
:10096000863F9F4FA105B10508F02AC149015A01F0
:1009700082E0880E911CA11CB11CD80152968D9268
:100980009D92AD92BC925597F801C28ED38EE48EA3
:10099000F58E8E899F89A88DB98D8C0D9D1DAE1DFC
:1009A000BF1D868F978FA0A3B1A34A895B896C89ED
:1009B0007D894C0D5D1D6E1D7F1D46A357A360A74D
:1009C00071A7F989F33069F5232809F0D9C0F80136
:1009D000E65AFF4F80819181A281B381F80182A301
:1009E00093A3A4A3B5A3880C991CAA1CBB1C880CB8
:1009F000991CAA1CBB1CFFEF8F0EF1E09F1EA11CCF
:100A0000B11C072E79E0B694A794979487947A95B1
:100A1000D1F7702D481459046A047B0408F4B2C05D
:100A2000FBC0232809F4B0C02A8D3B8D4C8D5D8D11
:100A3000820F931FA41FB51FF80182A393A3A4A341
:100A4000B5A3F989F23029F4880C991CAA1CBB1CA7
:100A50000AC1A3E0B0E0A50194010E942720DC01B7
:100A6000CB01B695A7959795879521E08222992489
:100A7000AA24BB24880E991EAA1EBB1EF4C0B7016F
:100A8000A6014F5F5F4F6F4F7F4FC8010E94D80292
:100A9000811139C0D80115961C92F801E45DFD4F13
:100AA0008081918185359A4A89F5F80186A597A5B7
:100AB000A0A9B1A982359245A146B14451F5F801EA
:100AC000EE5EFD4F80819181A281B3818237924792
:100AD000A144B14609F5349680819181A281B38108
:100AE000F80186879787A08BB18BE65EFD4F8081EA
:100AF0009181A281B381F80182879387A487B5870A
:100B0000F3E0F98B0BC0E3E0E98B08C0F3E0F98B6D
:100B100005C0E3E0E98B02C0F3E0F98BE989D80175
:100B2000EC93809102039091030301969093030349
:100B30008093020317969C938E93169780E0A9C02A
:100B40008BE0A7C08CE0A5C080E0A3C080E0A1C07E
:100B500083E09FC08AE09DC081E09BC08DE099C08A
:100B60008DE097C08DE095C08DE093C08DE091C081
:100B70008DE08FC08DE08DC08DE08BC08DE089C091
:100B80008DE087C08DE085C08DE083C08DE081C0A1
:100B900040E050E0BA01C8010E941603813009F01C
:100BA0002DCEF801E051FE4F9E012F5F3F4F5901BE
:100BB000A801405D5D4FE12CF12C70E060E0E9CDD3
:100BC00049015A0162E0860E911CA11CB11CD8019A
:100BD00052968D929D92AD92BC925597F801C28E1D
:100BE000D38EE48EF58E8E899F89A88DB98D8C0D5C
:100BF0009D1DAE1DBF1D868F978FA0A3B1A38A89AF
:100C00009B89AC89BD898C0D9D1DAE1DBF1D86A322
:100C100097A3A0A7B1A7D8CE8FEF9FEFDC01F80173
:100C200086879787A08BB18B82879387A487B587A8
:100C300080E88583E25AFF4F80819181019709F412
:100C40001ECFF3E0F98B6ACF8FEF9FEFDC01F80145
:100C500086879787A08BB18B82879387A487B58778
:100C600080E885835BCFFFEF8F0EF1E09F1EA11C14
:100C7000B11C072E79E0B694A794979487947A953F
:100C8000D1F7702D481459046A047B0408F47ECF10
:100C9000DBCF6D960FB6F894DEBF0FBECDBFDF91F0
:100CA000CF911F910F91FF90EF90DF90CF90BF9069
:100CB000AF909F908F907F906F905F904F903F90FC
:100CC0002F9008950F931F93FC019A01AB012250BE
:100CD00031094109510982899389A489B58902970B
:100CE000A109B109281739074A075B0768F4A281EF
:100CF000B0E00E94272006A117A120A531A5600F12
:100D0000711F821F931F03C060E070E0CB011F9131
:100D10000F910895AF92BF92CF92DF92EF92FF9220
:100D20000F931F93CF93DF934230510561057105F7
:100D300008F4AEC0FC01C288D388E488F5884C155D
:100D40005D056E057F0508F0A8C06A017B01EC0116
:100D50008081823009F44DC0833009F46CC0813049
:100D600009F0A0C08A0116950795040F151FC80148
:100D7000892F99278695468D578D60A171A1480FBF
:100D8000591F611D711DCF010E94D80281118FC0B2
:100D90005801FFEFAF1ABF0A1170FE01E00FF11FFB
:100DA00016A5C501892F992786954E8D5F8D68A15F
:100DB00079A1480F591F611D711DCE010E94D802F3
:100DC000811179C081E0B822CA0DDB1D8EA5612F8B
:100DD00070E0782BC0FE09C0729562956F7067272E
:100DE0007F70672780E090E071C07F7080E090E0C6
:100DF0006DC0452F562F672F7727868D978DA0A121
:100E0000B1A1480F591F6A1F7B1FCF010E94D80252
:100E1000811155C0B701A601440F551F661F771FEA
:100E20004E7F517066277727C40FD51F6EA57FA50B
:100E300080E090E04BC0868D978DA0A1B1A1689411
:100E400016F876956795579547951694D1F7480FFC
:100E5000591F6A1F7B1FCF010E94D802811133C026
:100E6000B701A601440F551F661F771F440F551F7A
:100E7000661F771F4C7F517066277727C40FD51FD9
:100E80008EA59FA5A8A9B9A9BC01CD019F701EC0C0
:100E900061E070E080E090E019C061E070E080E027
:100EA00090E014C061E070E080E090E00FC06FEF70
:100EB0007FEFCB010BC06FEF7FEFCB0107C06FEF70
:100EC0007FEFCB0103C06FEF7FEFCB01DF91CF91BD
:100ED0001F910F91FF90EF90DF90CF90BF90AF9058
:100EE0000895AF92BF92CF92DF92EF92FF920F934D
:100EF0001F93CF93DF93EC018B017D836C83CE80B6
:100F0000DF80E884F98481E0C816D104E104F104AB
:100F100009F48BC0E881F98182899389A489B58914
:100F2000C816D906EA06FB0608F081C0C114D10430
:100F3000E104F104C1F48081833041F482A193A1E2
:100F4000A4A1B5A10097A105B10559F480859185AB
:100F50000817190708F06DC062A173A184A195A1BB
:100F600037C06C017D01A28080E1A89E5001112450
:100F70000A151B0538F1B701A601888199810E94E5
:100F80008A066B017C018FEFC816D806E806F806C2
:100F900009F451C082E0C816D104E104F10408F458
:100FA0004CC0E881F98182899389A489B589C816E2
:100FB000D906EA06FB0608F042C00A191B090A1501
:100FC0001B05C8F6B701A601888199810E946206B7
:100FD000CA86DB86EC86FD86611571058105910563
:100FE00081F19801329522952F7023273F70232796
:100FF000DC01CB01820F931FA11DB11D8E879F873E
:10100000A88BB98B888199818E960F701127000F5C
:10101000111F02951295107F1027007F1027080FCF
:10102000191F1B8B0A8B80E00DC082E00BC082E091
:1010300009C082E007C081E005C082E003C082E011
:1010400001C082E0DF91CF911F910F91FF90EF904F
:10105000DF90CF90BF90AF9008954F925F926F92C4
:101060007F929F92AF92BF92CF92DF92EF92FF92C8
:101070000F931F93CF93DF934230510561057105A4
:1010800008F4DBC0FC01C288D388E488F5884C15DD
:101090005D056E057F0508F0D4C0680179012A015D
:1010A0003B01EC018081823009F465C0833009F492
:1010B00088C0813009F0C9C08A0116950795040FD0
:1010C000151FC801892F99278695468D578D60A1D8
:1010D00071A1480F591F611D711DCF010E94D802D7
:1010E000982E8111D1C05801FFEFAF1ABF0A1170BD
:1010F00040FE21C0FE01E00FF11F86A5282F2F70B2
:1011000030E1C39EC0011124822B86A781E08C832D
:101110004E8D5F8D68A179A1C501892F992786958C
:10112000480F591F611D711DCE010E94D8028823EE
:1011300009F493C08EC0FE01E00FF11FC6A681E046
:101140008C834E8D5F8D68A179A1C501892F992768
:101150008695480F591F611D711DCE010E94D8024E
:10116000882309F485C077C0FE01EA0DFB1DC6A6E1
:1011700081E08C8389C0452F562F672F7727868D76
:10118000978DA0A1B1A1480F591F6A1F7B1FCF01E6
:101190000E94D802982E811177C0B301A201440F9A
:1011A000551F661F771F4E7F517066277727425D58
:1011B0005F4FFE01E40FF51FD182C08281E08C8376
:1011C00063C0868D978DA0A1B1A1689416F876951D
:1011D0006795579547951694D1F7480F591F6A1F81
:1011E0007B1FCF010E94D802982E81114DC0B30100
:1011F000A201440F551F661F771F440F551F661F1E
:10120000771F4C7F517066277727425D5F4FFE0145
:10121000E40FF51F008111812281338100271127FE
:101220002227307FC02AD12AE22AF32AC082D18223
:10123000E282F38281E08C8327C06894992491F83C
:1012400023C06894992491F81FC06894992491F858
:101250001BC0982E19C0982E17C081E0B822689440
:1012600013F8F694E794D794C7941694D1F77CCFEB
:10127000E1E0BE22FE01EA0DFB1D96A5907F8D2DBB
:101280008F70C92EC82A70CF892DDF91CF911F9101
:101290000F91FF90EF90DF90CF90BF90AF909F9015
:1012A0007F906F905F904F9008954F925F926F92F2
:1012B0007F928F929F92AF92BF92CF92DF92EF92E6
:1012C000FF920F931F93CF93DF93EC012A013B0111
:1012D0004115510561057105B9F48A849B84AC847C
:1012E000BD8481149104A104B10461F18A899B89B0
:1012F000AC89BD8988169906AA06BB0638F1812CEF
:10130000912C5401839422C00E948A066B017C01B7
:10131000623071058105910508F48EC08FEFC81603
:10132000D806E806F80609F48CC08A899B89AC893E
:10133000BD89C816D906EA06FB0608F487C0530122
:10134000420104C0812C912C5401839475016401E5
:101350002FEFC21AD20AE20AF20A8A899B89AC8963
:10136000BD89C816D906EA06FB0660F082E0881639
:101370009104A104B10408F46EC0C12CD12C7601F3
:101380006894C1F8B701A601CE010E948A066115D2
:1013900071058105910599F06F3F2FEF7207820764
:1013A000920709F45DC0613071058105910509F46A
:1013B0005CC0C814D904EA04FB0451F65BC00FEF0B
:1013C0001FEF2FEF3FE0B701A601CE010E942D08CD
:1013D00081112BC0411451046104710449F097013B
:1013E0008601B301A201CE010E942D0881111DC00A
:1013F000CA86DB86EC86FD868E859F85A889B9899D
:101400008F3F2FEF9207A207B207C9F10197A109F9
:10141000B1098E879F87A88BB98B8D8181608D8361
:101420006C2D7D2D8E2D9F2D33C0813069F161E0B3
:1014300070E080E090E02CC061E070E080E090E03F
:1014400027C06FEF7FEF8FEF9FEF22C06C2D7D2DB8
:101450008E2D9F2D1DC060E070E080E090E018C0F0
:101460006FEF7FEF8FEF9FEF13C061E070E080E0E0
:1014700090E00EC060E070E080E090E009C06C2D6C
:101480007D2D8E2D9F2D04C06FEF7FEF8FEF9FEF8F
:10149000DF91CF911F910F91FF90EF90DF90CF9050
:1014A000BF90AF909F908F907F906F905F904F9084
:1014B00008957F928F929F92AF92BF92CF92DF92C8
:1014C000EF92FF920F931F93CF93DF93DC0114965B
:1014D000CD91DC911597219609F401C11E968D904E
:1014E0009D90AD90BC90519781149104A104B104DA
:1014F00009F4F7C07B018C016E01BFE0CB22DD2433
:10150000C114D10409F0D5C0EFEF8E1A9E0AAE0ABD
:10151000BE0ADC011E968D929D92AD92BC925197AF
:101520001A964D915D916D917C911D9741155105D4
:101530006105710549F4ED91FC9180859185C8178D
:10154000D90708F0D0C0B5C0DC01ED91FC91228133
:1015500030E021503109CE01929582958F70892714
:101560009F70892728233923232B09F0A2C0CF019C
:101570000E948A064B015C0162307105810591056C
:1015800008F4B3C06F3F7F4F8F4F9F4F09F4AFC038
:10159000D801ED91FC9182899389A489B589881637
:1015A0009906AA06BB0608F472C0EF2809F4A1C088
:1015B000D8011A964D915D916D917C911D97CF0147
:1015C0000E9455094B015C0161157105810591056A
:1015D00009F491C0613071058105910509F48DC050
:1015E0006F3F7F4F8F4F9F4F09F489C0D8018D9176
:1015F0009C910E946D02811184C0F80180819181CB
:10160000FC01BE96825D9D4F1192E817F907E1F744
:10161000D801ED90FC90B501A401C7010E946206BB
:10162000F70162A773A784A795A7E12CF12C772473
:10163000739419C07482D8018D919C910E946D029F
:10164000811161C0D801ED91FC9182A593A5A4A55B
:10165000B5A50196A11DB11D82A793A7A4A7B5A703
:10166000BFEFEB1AFB0AD801ED91FC91828190E06B
:10167000E816F906F8F282A593A5A4A5B5A58E19DA
:101680009F09A109B10982A793A7A4A7B5A7F8014B
:1016900082869386A486B586B501A4018081918156
:1016A0000E946206D8011E966D937D938D939C9344
:1016B0005197F801D583C483808191818E96CC0C9B
:1016C000DD1CCC0CDD1CCC0CDD1CCC0CDD1CCC0CD6
:1016D000DD1CC80ED91ED38AC28A80E015C084E002
:1016E00013C084E011C084E00FC082E00DC081E02F
:1016F0000BC084E009C087E007C082E005C081E03C
:1017000003C081E001C081E0DF91CF911F910F9173
:10171000FF90EF90DF90CF90BF90AF909F908F9011
:101720007F9008951F93CF93DF9300D000D000D017
:10173000CDB7DEB79C838B837E836D83142F7A8332
:101740006983CE0101960E943302992334F1FC0192
:10175000EE0FFF1FEC5FFC4F0190F081E02D309702
:1017600009F01082EB81FC813097E9F010822B8127
:101770003C81880F991FFC01EC5FFC4F3183208373
:10178000232B69F0113069F440E0BE016B5F7F4F9D
:10179000CE0103960E9476030EC08BE00CC080E061
:1017A0000AC080E008C0880F991FFC01EC5FFC4F65
:1017B0001182108280E026960FB6F894DEBF0FBE2D
:1017C000CDBFDF91CF911F9108952F923F924F92FD
:1017D0005F926F927F928F929F92AF92BF92CF92C1
:1017E000DF92EF92FF920F931F93CF93DF93CDB7CA
:1017F000DEB7AE970FB6F894DEBF0FBECDBF7CA3A9
:101800006BA3009709F49DC2842E1C01DC011D927C
:101810001C924E71BE016D5D7F4FCE0101960E94FC
:1018200076038111F7C2CE0147969E8B8D8BCBA09C
:10183000DCA0F60180818F3211F08C3519F4FFEFB6
:10184000CF1ADF0A282D2F712DA71F82188619861F
:101850001A86D6018C91803270F460E070E0CE017F
:1018600001960E9471071C8A1B8AE12CF12C8823A7
:1018700009F49CC2A2C26894BB24B5F8A12C712CB7
:101880006894662463F8412C562C4EA6F60103C0DA
:10189000FD0101C0FD019F01DF018D918F32C1F378
:1018A0008C35C1F36D897E89DB01CB010B96BD922E
:1018B000A817B907E1F74A2D572DC12CD12CE62CDA
:1018C000F42C912C3AA729A77EA36DA3392DBFEF45
:1018D000CB1ADB0A7191713208F444C27F3209F4E9
:1018E00038C27C3509F435C27E3219F04E155F05D9
:1018F00090F028E0E216F10409F078C27E3209F097
:1019000075C2330F330F452D5EA50F2EFBE0EF2E72
:10191000F02DF12CDCCF77230CF468C2072F10E0F8
:101920000232110509F436C2A0E2B1E08D9188239C
:1019300009F409C290E008171907C1F786E02FC221
:10194000326006C08FE9870F8A3110F4316070521F
:10195000ADA1BEA1A40FB51F7C934F5F5F4FB7CF62
:10196000452B09F443C2DB019C91953E11F4E5E05F
:10197000EC93F8E0EF16F10411F4990C990C992D01
:101980009370913009F48061992D9C70943009F422
:101990008860DB011B968C936A2D772DCE01019612
:1019A0000E9471078111ECC14F85588969897A8934
:1019B00089819A810E94D8028111E2C1EB88FC885A
:1019C000F70180818823D9F0638563FD0FC04D89BD
:1019D0005E89DA019701255F3F4F04C02E173F074C
:1019E00009F4C9C191918D919817C1F36A2D772D92
:1019F000CE0101960E94590A8823B1F2C1C1ED8936
:101A0000FE89938592FDC8C185E0C9C164FFC6C146
:101A1000D7015A968D919C915B97A0E0B0E0E98147
:101A2000FA812081233061F4F7014489558960E00F
:101A300070E0BA0155274427842B952BA62BB72B92
:101A40008F839887A987BA8721CF882309F455C047
:101A5000843009F04AC060E070E0CE0101960E9437
:101A60007107811119C04F85588969897A898981DF
:101A70009A810E94D80281110FC0EB89FC89808174
:101A8000853E79F0882369F061E070E0CE0101962F
:101A90000E94590A882339F3843009F4ABC18111BB
:101AA000ACC14F85588969897A8989819A810E9458
:101AB000D8028111A2C1EB89FC89CF0180961192D5
:101AC000E817F907E1F76D897E894BE050E08B89D3
:101AD0009C890E940702E981FA8181E08483FDA547
:101AE000F860FDA7EB88FC8810C02DA528602DA705
:101AF000EB88FC88882349F08DC1D7011B968C9117
:101B0000817109F080C182FC80C1BDA5B3FFCAC04C
:101B100080E090E0A1E2B8E4F70186879787A08B88
:101B2000B18B868B978BA08FB18F1386D701148EC4
:101B3000158E168E178EC980DA80828C938CA12C1C
:101B4000B12CF6018081833069F454968D919C917B
:101B50005597A0E0B0E0DC0199278827882A992AC8
:101B6000AA2ABB2AD7015B961C921E925A975596B9
:101B70001C921E92549781E0F60184838114910493
:101B8000A104B10409F48BC022A533A544A555A531
:101B900029A73AA74BA75CA7B2E08B169104A10432
:101BA000B10408F414C182899389A489B58988167F
:101BB0009906AA06BB0608F00CC18DA29EA2AFA290
:101BC000B8A64DA15EA16FA178A5C6010E948A06A4
:101BD0002B013C016115710581059105E9F1613029
:101BE00071058105910509F4F6C06F3F7F4F8F4F56
:101BF0009F4F09F4F2C000E010E098014DA15EA1F2
:101C00006FA178A5C6010E942D088111E7C0F601D9
:101C100086859785A089B1898F3FFFEF9F07AF0722
:101C2000BF0759F00196A11DB11DF6018687978760
:101C3000A08BB18B8581816085834DA25EA26FA24E
:101C400078A6F60182899389A489B5894816590630
:101C50006A067B0608F4B5CF89819A81F1E08F1A74
:101C60009108A108B108DC011A968D929D92AD925F
:101C7000BC921D9749A55AA56BA57CA50E94D802C8
:101C8000882369F0C7C08111C5C0F701838584FD31
:101C9000BEC081FE02C080FDBCC083FE03C0FDA5A6
:101CA000F062FDA7E981FA8182A593A5A4A5B5A557
:101CB000F101828F938FA48FB58FF78EE68EEDA5FD
:101CC000D1011496EC93149715961C9209811A81F0
:101CD000D7015A968D919C915B97A0E0B0E0F801F6
:101CE0002081233061F4F7014489558960E070E078
:101CF000BA0155274427842B952BA62BB72BF1012E
:101D000086879787A08BB18BF701848D958DA68DE3
:101D1000B78DF10182879387A487B58716821782D2
:101D200010861186168A178A108E118E11830083F1
:101D3000D80116968D919C9117979383828380E0AA
:101D400069C089E067C08FEB870F8A3108F4F8CD4E
:101D5000F9CD6DA17EA1932E29A53AA5C20ED31E61
:101D600080E0FECD6DA17EA1932E29A53AA5C20EDD
:101D7000D31E84E0F5CDFA01838582FF47CE06C0ED
:101D8000ED89FE899385843051F43CCEE114F10451
:101D9000C9F40CC086E003C084E001C085E0EB8894
:101DA000FC88982D9C7109F050CE6DCF182D1C71B8
:101DB00019F5E12CF12C86E015C0182D1C7109F0E5
:101DC00047CE10C0882D8C7109F097CE5ECF82E08F
:101DD00005C082E003C082E001C081E0882309F4ED
:101DE0005ECF18C0882309F46ACF14C0EB88FC8842
:101DF00086E0E3CF87E001C086E0FDA5F860FDA79F
:101E0000EB88FC88EFCF87E005C088E003C084E062
:101E100001C087E0AE960FB6F894DEBF0FBECDBF0F
:101E2000DF91CF911F910F91FF90EF90DF90CF90B6
:101E3000BF90AF909F908F907F906F905F904F90EA
:101E40003F902F9008952F923F924F925F926F9202
:101E50007F928F929F92AF92BF92CF92DF92EF923A
:101E6000FF920F931F93CF93DF93EC014B016A0115
:101E70005901F901118210820E94510381110CC194
:101E80008D81811109C18C8180FF03C18A859B8569
:101E9000AC85BD854E815F8168857985841B950BF6
:101EA000A60BB70BA60160E070E084179507A607A4
:101EB000B70708F46C01C114D10409F4ECC04E81D9
:101EC0005F8168857985DB01CA019170AA27BB27EC
:101ED000892B8A2B8B2B09F098C0E881F98112811C
:101EE0001150DB01CA01072E79E0B695A7959795A9
:101EF00087957A95D1F7702D182329F5452B462B18
:101F0000472B29F46E857F858889998907C04A897E
:101F10005B896C897D89CF010E948A0662307105D8
:101F20008105910518F482E08D83B6C06F3FFFEF05
:101F30007F078F079F0719F481E08D83ADC06A8BFF
:101F40007B8B8C8B9D8B288039804A895B896C893F
:101F50007D89C1010E9462066115710581059105A7
:101F600019F482E08D8398C02B013C01410E511C75
:101F7000611C711C7601EF2CFF24E694E114F1043E
:101F800009F43FC0F1014281242F30E0C701810FE5
:101F9000911D2817390718F47901E11AF108870112
:101FA000A3019201B401F10181810E946B16882383
:101FB00019F081E08D8370C0E881F98184818823E4
:101FC000E1F082A593A5A4A5B5A584199509A60954
:101FD000B709A70160E070E084179507A607B70767
:101FE00060F4BF01625D7F4F982F8827990F40E012
:101FF00052E0880D991D0E940702FE2CEE24FF0C72
:102000002DC04E8A5F8A688E798E8E819F819170F5
:1020100020E032E07901E81AF90ACE14DF0408F46E
:1020200076014E895F89688D798D888199810E94BA
:10203000D802882319F081E08D832EC08E819F8184
:10204000A885B9859170AA27BB278E96688179816A
:10205000680F791FA701C4010E9407028E0C9F1C04
:102060008E819F81A885B9858E0D9F1DA11DB11DF3
:102070008E839F83A887B987F501808191818E0D1A
:102080009F1D91838083CE18DF0809F018CF80E070
:1020900003C087E001C080E0DF91CF911F910F91D5
:1020A000FF90EF90DF90CF90BF90AF909F908F9078
:1020B0007F906F905F904F903F902F9008952F9258
:1020C0003F924F925F926F927F928F929F92AF92C8
:1020D000BF92CF92DF92EF92FF920F931F93CF9315
:1020E000DF93EC014B016A015901F9011182108261
:1020F0000E94510381116DC18D8181116AC18C8152
:1021000081FF66C18E819F81A885B985AC01BD0123
:102110004C0D5D1D611D711D481759076A077B072E
:1021200008F440C1C114D10409F43CC14E815F815F
:1021300068857985DB01CA019170AA27BB27892BA5
:102140008A2B8B2B09F0E8C0E881F98112811150AC
:10215000DB01CA01072E79E0B695A795979587957B
:102160007A95D1F7702D182309F042C0452B462BE4
:10217000472B81F46E857F85888999896115710562
:1021800081059105A1F440E050E0BA01CF010E9421
:10219000550907C04A895B896C897D89CF010E94F6
:1021A0005509611571058105910509F4FBC0613080
:1021B00071058105910519F482E08D830AC16F3F95
:1021C000FFEF7F078F079F0719F481E08D8301C11F
:1021D0006A8B7B8B8C8B9D8B4E845F84688879881F
:1021E00045284628472821F46E877F87888B998B5E
:1021F000E881F98142A553A564A575A58E899F89BB
:10220000A88DB98D481759076A077B0741F4CF019C
:102210000E946D02882319F081E08D83DAC0288046
:1022200039804A895B896C897D89C1010E94620677
:10223000611571058105910519F482E08D83C9C08E
:102240002B013C01410E511C611C711C7601EF2CCD
:10225000FF24E694E114F10409F43FC0F101428146
:10226000242F30E0C701810F911D2817390718F47A
:102270007901E11AF1088701A3019201B401F1018A
:1022800081810E94C116882319F081E08D83A1C04D
:10229000E881F98182A593A5A4A5B5A5841995091E
:1022A000A609B709A70160E070E084179507A607A3
:1022B000B70778F4982F8827990FB401680F791F12
:1022C00040E052E0CF018E960E940702E881F9813A
:1022D0001482FE2CEE24FF0C4CC04E815F81688579
:1022E00079858A859B85AC85BD85481759076A071E
:1022F0007B0770F0C1010E946D02882319F081E014
:102300008D8367C0E881F98142A653A664A675A6AD
:102310004E8A5F8A688E798E8E819F81917020E0CF
:1023200032E07901E81AF90ACE14DF0408F47601E4
:102330004E895F89688D798D888199810E94D80244
:10234000882319F081E08D8344C08E819F81A88508
:10235000B9859170AA27BB278E9628813981A7015C
:10236000B401820F931F0E940702E881F98121E0E6
:1023700024838E0C9F1C8E819F81A885B9858E0D2C
:102380009F1DA11DB11D8E839F83A887B987F5016D
:10239000808191818E0D9F1D91838083CE18DF08EF
:1023A00009F0C4CE8E819F81A885B9854A855B8559
:1023B0006C857D85481759076A077B0720F48A8753
:1023C0009B87AC87BD878C8180628C8380E001C055
:1023D00087E0DF91CF911F910F91FF90EF90DF90F9
:1023E000CF90BF90AF909F908F907F906F905F90B5
:1023F0004F903F902F9008950F931F93CF93DF93AB
:10240000EC010E945103982F811198C08C8185FFA7
:1024100095C04A8D5B8D6C8D7D8D888199810E94E0
:10242000D802982F81118AC0EE8DFF8D838580623E
:1024300083878A859B85AC85BD85848F958FA68F84
:10244000B78F8E859F85A889B989938F828FB58B29
:10245000A48B80E090E0A1E2B8E4868B978BA08FFC
:10246000B18F138A128A8C818F7D8C83E881F981E8
:1024700081E084830990D881C02DCE010E946D0235
:10248000982F81115BC08881833009F04DC08D8108
:10249000813009F049C0BE01625D7F4FFB01CE0172
:1024A000825D9D4F1192E817F907E1F785E59AEAF9
:1024B000FE01E45DFD4F9183808382E592E5A1E614
:1024C000B1E48EA79FA7A8ABB9AB82E792E7A1E4DE
:1024D000B1E67A9780839183A283B3838E859F85AB
:1024E000A889B989349680839183A283B3838A852E
:1024F0009B85AC85BD85349680839183A283B3830D
:102500008A8D9B8DAC8DBD8D9C01AD012F5F3F4FA2
:102510004F4F5F4F2AA73BA74CA75DA701E010E0F4
:1025200089810E94C1161D8240E050E060E08981EF
:102530000E94361791E0811101C090E0892FDF9150
:10254000CF911F910F910895CF93DF93EC010E94DB
:10255000FC11811107C0CE010E945103811102C0FC
:1025600019821882DF91CF9108954F925F926F92F6
:102570007F928F929F92AF92BF92CF92DF92EF9213
:10258000FF920F931F93CF93DF9300D000D000D022
:10259000CDB7DEB79E838D836A017B010E94510314
:1025A000811193C1AD81BE8115968C9115978111D2
:1025B0008CC11A968D919D910D90BC91A02D8C157A
:1025C0009D05AE05BF0538F4ED81FE81248121FD16
:1025D00002C06C017D01AD81BE8116964D905D906B
:1025E0006D907C901997FD011682178210861186D6
:1025F000C114D104E104F10409F464C10081118122
:10260000D80112968C90912CA12CB12C072E79E038
:10261000880C991CAA1CBB1C7A95D1F7702D41140B
:1026200051046104710409F440C0B1E04B1A51082F
:1026300061087108C701B6016150710981099109EA
:10264000A50194010E94FF1F29833A834B835C8379
:10265000C301B201A50194010E94FF1F89819A81E3
:10266000AB81BC8182179307A407B507F0F08827D8
:102670009927DC0188199909AA09BB09482259221E
:102680006A227B22AD81BE8116964D925D926D923B
:102690007C921997C418D508E608F70852964D9110
:1026A0005D916D917C91559737C0ED81FE81468596
:1026B000578560897189411551056105710531F5AD
:1026C00040E050E0BA01C8010E945509AB01BC01CD
:1026D000413051056105710531F482E0AD81BE8163
:1026E00015968C93F2C04F3FBFEF5B076B077B07DC
:1026F00029F481E0ED81FE818583E7C0AD81BE8153
:102700001E964D935D936D937C935197ED81FE8161
:10271000428B538B648B758B411551056105710597
:1027200009F499C08C149D04AE04BF0408F05FC086
:10273000AD81BE8114968C91149781FF0CC08D9150
:102740009C910E945509AB01BC01411551056105E1
:10275000710549F44AC0AD81BE818D919C910E9462
:102760008A06AB01BC014F3FBFEF5B076B077B07DE
:1027700029F4ED81FE8181E08583A7C042305105B7
:102780006105710568F0AD81BE81ED91FC91828992
:102790009389A489B589481759076A077B0728F0E8
:1027A000ED81FE8182E0858390C0AD81BE8152962D
:1027B0004D935D936D937C935597FD018681978131
:1027C000A085B185880D991DAA1DBB1D86839783A1
:1027D000A087B187C818D908EA08FB088C149D04A3
:1027E000AE04BF0408F4A4CF02C075016401ED81FA
:1027F000FE8186819781A085B1858C0D9D1DAE1DC2
:10280000BF1D86839783A087B187D701C6019170CA
:10281000AA27BB27892B8A2B8B2B09F180819181D9
:102820000E946206611571058105910531F482E00F
:10283000AD81BE8115968C9348C00B2EB9E0F694FD
:10284000E794D794C794BA95D1F7B02DC60ED71E8A
:10285000E81EF91E07C0C12CD12C760103C0C12C83
:10286000D12C7601ED81FE8186819781A085B1858D
:10287000AC01BD01517066277727452B462B472BAE
:1028800069F046895789608D718DC416D506E606B4
:10289000F70621F0C68AD78AE08EF18EED81FE819F
:1028A0004285538564857585481759076A077B07F4
:1028B00058F482879387A487B58784818062848354
:1028C00080E003C080E001C080E026960FB6F89457
:1028D000DEBF0FBECDBFDF91CF911F910F91FF9053
:1028E000EF90DF90CF90BF90AF909F908F907F90B0
:1028F0006F905F904F9008951CBC209884B18977A9
:1029000084B985B1897F85B92F9A08958EBD0DB49C
:1029100007FEFDCF8EB508952F9A8FEF0E94861483
:1029200008952F988FEF0E94861482E38093090305
:102930008FEF0E9486148F3F49F080910903811127
:10294000F7CF0E948C1480E090E0089581E090E041
:1029500008950F931F93CF93DF93082F192FEB0147
:1029600084E180930A038FEF0E9486148F3F39F42D
:1029700080910A038111F7CF80E090E022C08E3F62
:10298000F1F4E02FF12F8FEF8EBD0DB407FEFDCFD8
:102990009EB5DF0190838EBD0DB407FEFDCF9EB5C1
:1029A00011969C9322973296209771F78FEF0E9491
:1029B00086148FEF0E94861481E090E002C080E0D0
:1029C00090E0DF91CF911F910F910895FF920F93A7
:1029D0001F93CF93DF93C82FD42F152F062FF72ED9
:1029E000882354F440E050E0BA0187E30E94E614E3
:1029F000823008F04EC0CF77CC3039F10E948C1471
:102A00000E949114892BF9F08C2F80640E94861407
:102A10008F2D0E948614802F0E948614812F0E9481
:102A200086148D2F0E948614CC2379F12BC08FEF52
:102A30000E948614CAE08FEF0E94861488234CF50A
:102A4000C150C9F726C08FEF24C08CE40E948614C1
:102A50008F2D0E948614802F0E948614812F0E9441
:102A600086148D2F0E94861481E00E948614CC303B
:102A7000F1F2E0CF87E80E948614DCCF81E00E946B
:102A80008614D8CFC830B1F3F9CF85E90E948614F7
:102A9000D1CFDF91CF911F910F91FF9008951F9398
:102AA000CF93DF93EC01162F82E3809309038FEF1E
:102AB0000E9486148F3F31F0809109038111F7CF76
:102AC00090E02BC0812F0E9486141D3F21F1FE0152
:102AD0009E013E5FDF0190819EBD0DB407FEFDCFDC
:102AE00011969C919EBD0DB407FEFDCF3296E21764
:102AF000F30781F78FEF0E9486148FEF0E948614F0
:102B00008FEF0E948614282F2F7181E090E02530EE
:102B100021F080E002C081E090E0DF91CF911F9131
:102B20000895CF92DF92EF92FF920F931F93CF936E
:102B3000DF9300D000D0CDB7DEB78111ABC00E94CB
:102B40007C148091060181FF03C080910601AFC013
:102B5000209A85B1826885B984B1866884B982E596
:102B60008CBD91E09DBD8CBD1AE08FEF0E94861454
:102B70001150D9F740E050E0BA0180E00E94E6141D
:102B8000813009F08FC084E680930A034AEA51E05D
:102B900060E070E088E00E94E614813009F041C0F6
:102BA000CE0101966C017E0195E0E90EF11C8601D3
:102BB0008FEF0E948614F80181938F01EE15FF05B7
:102BC000B9F78B81813009F06DC08C818A3A09F0A8
:102BD00069C080910A03882349F040E050E060E03A
:102BE00070E489EA0E94E6148111F3CF80910A0310
:102BF000882309F457C040E050E0BA018AE30E94FC
:102C0000E61481114FC08FEF0E948614F601819364
:102C10006F01EE16FF06B9F7898186FD3DC084E09D
:102C20003CC040E050E0BA0189EA0E94E6148230DC
:102C300018F001E011E002C002E019EA80910A03F5
:102C4000882341F040E050E0BA01812F0E94E61451
:102C50008111F4CF80910A03882321F140E052E0F2
:102C600060E070E080E10E94E61481111BC00093D7
:102C700008030E948C14002341F0809106018E7F8E
:102C80008093060180E58CBD02C00E947C14809177
:102C900006010DC081E00BC08CE0809308030E9408
:102CA0008C14EBCF109208030E948C14EECF0F907F
:102CB0000F900F900F90DF91CF911F910F91FF9088
:102CC000EF90DF90CF900895811103C080910601AD
:102CD000089581E00895FF920F931F93CF93DF93A0
:102CE000EB01811143C00115110509F441C0809128
:102CF000060180FD3FC08091080383FD09C0012EBD
:102D000019E0220F331F441F551F1A95D1F7102DBC
:102D10000230110528F40F2EF1E1FF2EF02D04C032
:102D20000F2EF2E1FF2EF02DBA01A9018F2D0E9486
:102D3000E614811114C060E072E0CE010E94A91473
:102D4000892B21F0DE5F01501109A9F782E1F81209
:102D500006C040E050E0BA018CE00E94E6140E94F8
:102D60008C1481E0012B39F480E005C084E003C0BD
:102D700084E001C083E0DF91CF911F910F91FF901C
:102D80000895CF92DF92EF92FF920F931F93CF930C
:102D9000DF93EB0169017A01811158C0011511051A
:102DA00009F456C08091060180FD54C0809106014F
:102DB00082FD52C08091080383FD09C00B2EB9E04B
:102DC000CC0CDD1CEE1CFF1CBA95D1F7B02D0130E8
:102DD000110599F4B701A60188E10E94E61481115A
:102DE0002EC06EEFCE010E944F1531E020E0892BFE
:102DF00009F030E0032F122F22C0867031F0A801B5
:102E000060E070E087E90E94E614B701A60189E15D
:102E10000E94E614811113C06CEFCE010E944F1581
:102E2000892B21F0DE5F01501109B1F76DEF80E0D1
:102E300090E00E944F15892B11F401E010E00E94F0
:102E40008C1481E0012B49F480E007C084E005C0C8
:102E500084E003C083E001C082E0DF91CF911F9145
:102E60000F91FF90EF90DF90CF900895EF92FF9237
:102E70000F931F93CF93DF93CDB7DEB760970FB655
:102E8000F894DEBF0FBECDBF811194C180910601C1
:102E900080FD92C18A01862F90E08733910508F06A
:102EA00070C1FC01EA5AFF4F0C9421200E9491143A
:102EB00011E0892B09F47AC110E078C140E050E0BC
:102EC000BA0189E00E94E61481115DC160E170E001
:102ED000CE0101960E94A914892B09F456C189815B
:102EE0008295869586958370813031F5298530E00D
:102EF000322F22278A85280F311D88858F7390E015
:102F0000A0E0B0E0DC01992788270196A11DB11D42
:102F1000820F931FA11DB11D072E7AE0880F991F04
:102F2000AA1FBB1F7A95D1F7702DF801808391837A
:102F3000A283B38310E03AC18985829586958695F0
:102F40008370288590E0F4E02F9F800D911D11245F
:102F50009C012F5F3F4F8F81837090E0982F8827CF
:102F6000990F990F820F931FA0E0B0E03E813F7050
:102F70002B85221F2227221F320F2A852370220F22
:102F8000230F275004C0880F991FAA1FBB1F2A9523
:102F9000D2F7F80180839183A283B38310E006C146
:102FA000F0900803F2FE33C040E050E0BA018DE833
:102FB0000E94E6148111EBC08FEF0E94861460E13D
:102FC00070E0CE0101960E94A914892B09F4E1C09A
:102FD0000F2EF0E3FF2EF02D8FEF0E948614FA944F
:102FE000F110FACF2B8522952F7080E190E0A0E0C0
:102FF000B0E004C0880F991FAA1FBB1F2A95D2F703
:10300000F80180839183A283B38310E0CFC040E0B6
:1030100050E0BA0189E00E94E6148111BCC060E171
:1030200070E0CE0101960E94A914892B09F4B5C065
:10303000F1FE20C02B852F738C85881F8827881F61
:1030400090E00196820F911D820F911D2E85229591
:10305000269526952370215002C0880F991F2A9526
:10306000E2F7A0E0B0E0F80180839183A283B3830C
:1030700010E09CC08C85282F2370829586958770E0
:1030800090E0F8E02F9F800D911D112401962B8573
:103090002C7730E035952795359527952F5F3F4F55
:1030A000829FA001839F500D929F500D1124CA0151
:1030B000A0E0B0E0F80180839183A283B38310E0A5
:1030C00075C080910803FA01808310E06FC040E072
:1030D00050E0BA0189E00E94E614811160C060E10D
:1030E00070E0C8010E94A91411E0892B09F45EC0A8
:1030F00010E05CC040E050E0BA018AE00E94E614B3
:1031000081114FC060E170E0C8010E94A91411E074
:10311000892B09F44BC010E049C040E050E0BA01EF
:103120008AE30E94E61481113EC078010C5F1F4FB4
:103130008FEF0E948614F70181937F010E171F07FE
:10314000B9F710E033C040E050E0BA018DE80E94CA
:10315000E61481112AC08FEF0E94861460E470E0AB
:10316000C8010E94A91411E0892B01F110E01EC0D2
:103170000E947C148091060181608093060110E01A
:1031800015C014E013C011E011C011E00FC011E030
:103190000DC011E00BC011E009C011E007C011E043
:1031A00005C011E003C011E001C011E00E948C14C1
:1031B000812F03C084E001C083E060960FB6F894CD
:1031C000DEBF0FBECDBFDF91CF911F910F91FF905A
:1031D000EF90089580910A03882319F0815080931D
:1031E0000A0380910903882319F081508093090311
:1031F00080910601897F80930601089581E0809384
:10320000D70080EA8093D80082E189BD09B400FE2E
:10321000FDCF80E98093D8001092E00010920E0359
:1032200010920B038CE08093E200789408952FB7FE
:10323000F89480910E03811104C02FBF8FEF9FEF90
:10324000089583E08093E9008091E80085FD12C035
:1032500082FD04C00BC082FD04C008C0E8EEF0E0AF
:103260009BE69083808185FFF6CF04C02FBF8FEF50
:103270009FEF08958091F1009091E80095FD03C0C3
:103280009BE69093E8002FBF90E008959FB7F894D5
:1032900080910E03882389F083E08093E900809178
:1032A000F20081110BC02091E80022FF07C025FD2C
:1032B00005C02BE62093E80001C080E09FBF089581
:1032C000CF93DF9390910E03992309F44CC09FB7DD
:1032D000F89424E02093E90020910C03222349F084
:1032E0002091E80025FD03C09FBF8FEF41C01092E1
:1032F0000C033091E400375E2091E80025FD24C0E6
:103300009FBF9091E400391781F090910E039923AB
:1033100061F1A9EEB0E044E0E8EEF0E0C4EED0E008
:103320000DC09FBF9881391305C081E080930C03C5
:103330008FEF1EC090910E039923C9F09FB7F894A8
:103340004C93208125FFEDCF8093F1008091E80020
:1033500085FD03C08AE38093E80085E080930D0338
:103360009FBF80E005C08FEF03C08FEF01C08FEFDC
:10337000DF91CF9108951F920F920FB60F921124F3
:103380008F939F93EF93FF93E1EEF0E080811082A3
:1033900083FF11C01092E90091E09093EB0010922E
:1033A000EC0092E19093ED0098E09093F000109281
:1033B0000E0310920B0382FF13C080910E0388232B
:1033C00079F080910D03882359F0815080930D038B
:1033D000811106C084E08093E9008AE38093E800CD
:1033E000FF91EF919F918F910F900FBE0F901F90C3
:1033F00018951F920F920FB60F9211240F931F93DF
:103400002F933F934F935F936F937F938F939F93EC
:10341000AF93BF93CF93DF93EF93FF931092E900A5
:103420008091E80083FF4FC1E1EFF0E0A08180814F
:103430002081908130E0392B4081908150E0BA01A9
:10344000792BC081D08192EF9093E800863009F00B
:1034500059C004C081E28093EB003CC14AE151E0D5
:1034600004E411E0CA01FA01A591B4912A173B07BF
:1034700009F5FA013296A591B4916A177B07D1F448
:10348000FA01349645915491FC01369624918C2F83
:1034900090E09D2B8F3F910519F010F08FEF90E099
:1034A000821708F4282FA8EEB0E070E16EEFC1EFAC
:1034B000D0E006C0495F5F4F4017510799F6CACF69
:1034C0008C91982F9570E1F382FD04C1322F213148
:1034D00008F0372F332309F4FAC0FA01832F9491AF
:1034E0009883815031968111FACF8FEF830F90E04E
:1034F0000196480F591F231B6C932111E1CF3031E6
:10350000F9F2E8C0853061F48EEF8093E800E8EED0
:10351000F0E0808180FFFDCF20682093E300DAC0D7
:10352000893009F035C0A111CEC020930E0310924E
:103530000B0310920D038EEF8093E80081E029EDDC
:1035400031E0C9EED0E0ABEEB0E00CEE10E06DEE95
:1035500070E08883A9014F5F5F4FF90194919C93BC
:10356000992361F0FA014491F8014083F901329600
:1035700094912D5F3F4FFB01908301C09A018F5FB3
:10358000853039F7EAEEF0E08EE180831082A2C048
:10359000883081F4A03809F096C0E8EEF0E0808130
:1035A00080FFFDCF80910E038093F1008EEF80931A
:1035B000E80090C08132B9F4A13A09F084C0E8EE85
:1035C000F0E0808180FFFDCFE7E0F1E02EE031E028
:1035D000A1EFB0E081918C932E173F07D9F78EEFC2
:1035E0008093E80077C08032D1F4A13209F06BC03B
:1035F000E8EEF0E0808182FFFDCFE7E0F1E02EE031
:1036000031E0A1EFB0E08C9181932E173F07D9F7FD
:10361000E8EEF0E08BEF80838EEF80835BC0823238
:1036200071F4A13209F04FC020930B03E8EEF0E0F3
:10363000808180FFFDCF8EEF8093E8004BC0811129
:103640001AC0E8EEF0E0808180FFFDCFA23851F48F
:10365000E9EEF0E060838091EB0085FB882780F93C
:10366000108201C080E0E1EFF0E0808310828EEFF5
:103670008093E8002FC0982F9D7F913021F5A230D4
:1036800011F5232B01F5462F4F779FEF940F9430C0
:10369000D0F49EEF9093E8004093E900833021F44A
:1036A00081E28093EB0016C089E18093EB0081E01A
:1036B00090E002C0880F991F4A95E2F7EAEEF0E029
:1036C0008083108207C081E28093EB0003C06C937B
:1036D0002111F6CEFF91EF91DF91CF91BF91AF9184
:1036E0009F918F917F916F915F914F913F912F911A
:1036F0001F910F910F900FBE0F901F901895809102
:10370000180390911903019790931903809318035C
:10371000892B31F40E941C0181E0809315030895E8
:1037200081E090E0909317038093160308958091B1
:10373000100390911103A0911203B091130300970D
:10374000A105B10541F420911403222321F081E069
:103750008093150308959250A109B1098093100335
:1037600090931103A0931203B09313030E94E801F6
:1037700060E072E00E94C41F809113038F938091D8
:1037800012038F93809111038F93809110038F9375
:103790008EE291E09F938F930E9441200F900F90B3
:1037A0000F900F900F900F900895E1E6F0E080E801
:1037B00080831082089580E092E090938900809346
:1037C000880083E28093800089E18093810081E01A
:1037D00080936F00269A549A559A569A0895F894B1
:1037E0000E94D51B8AE682BF0E94081D0E94131DFD
:1037F00067E97BE18FE79BE10E9445010E9411018F
:103800000E94DB1B78940E940A1F08950E945A01AF
:1038100081E391E0909319038093180310921703AA
:10382000109216030E94201F0E9418015D9A5E9854
:1038300008950E945A010E94401F609310037093E4
:10384000110380931203909313030E94E80160E038
:1038500074E00E94C41F5C9A5E9808951F920F92B4
:103860000FB60F9211242F933F934F935F936F9353
:103870007F938F939F93AF93BF93EF93FF93809129
:103880001403882379F080910F0381110BC00E94EB
:10389000990190E090938B0080938A0081E080935F
:1038A0000F0302C010920F03FF91EF91BF91AF91F0
:1038B0009F918F917F916F915F914F913F912F9148
:1038C0000F900FBE0F901F9018950E94EF1B30E0D5
:1038D00001E010E00F2EF0E4EF2EF1E0FF2EF02DCE
:1038E0006894BB24B1F80F2EF3E38F2EF1E09F2EE6
:1038F000F02DCC24C3942FB19FB18FB1807431309F
:1039000059F120F0323009F451C067C0C22FC071A4
:10391000892F80725C985D985E9A81110AC09F928F
:103920008F920E9441200E94061C0F900F903C2D08
:1039300001C030E0C1110DC080911403811109C094
:10394000FF92EF920E9441200E94191C0F900F904D
:103950003B2D10921403CFCF811104C01093190393
:10396000009318038091160390911703892B59F047
:1039700010921703109216030E94C90160E072E0D2
:103980000E94731F2FC080911503882359F1109254
:1039900015030E94C90160E072E00E94731F0E943B
:1039A000581F8BE491E00E94572021C0811107C06D
:1039B000109215038BE491E00E94572030E0809133
:1039C0001503811103C0C092140395CF1092150303
:1039D0008BE491E00E9457200AC081E591E00E94AB
:1039E000572005C08FB18FB18FB18074B5CF8FB123
:1039F000C82FC0718FB180729FB18CCF0E944619C1
:103A00008823E1F30E94171908950E946019089510
:103A10000E94FE18E1EAF9E08EE091E09183808354
:103A200093838283089580E887BD82E084BD80937C
:103A30006E0085BD579A08951F920F920FB60F9290
:103A400011242F933F934F935F936F937F938F93A3
:103A50009F93AF93BF93EF93FF9380911E0181508B
:103A600080931E01811105C08CE980931E010E9484
:103A7000EA1880911C0190911D01019790931D01FE
:103A800080931C01892B49F485E89EE190931D01E8
:103A900080931C018BB180588BB9FF91EF91BF913E
:103AA000AF919F918F917F916F915F914F913F91D6
:103AB0002F910F900FBE0F901F901895FB01DC0106
:103AC0009B012C5F3F4F81918D93E217F307D9F74C
:103AD00008958F929F92AF92BF92FF920F931F9380
:103AE000CF93DF934B015C01142FF22E65E871E058
:103AF00085E799E00E945E1DC5E7D9E01C821D8222
:103B00001E821F826AE871E08DE799E00E945E1DC7
:103B10006FE871E081E899E00E945E1D80E190E02D
:103B2000A0E0B0E0888B998BAA8BBB8B81E090E002
:103B30009D8B8C8BEF2DF0E0FF8BEE8B888E998E1A
:103B4000AA8EBB8E012F069506950695A02FB0E094
:103B5000A50194010E9427209B01AC01DF010E9476
:103B600027206C8F7D8F8E8F9F8F0E9FC0010F9FA0
:103B7000900D112499A388A3412F50E05BA34AA381
:103B800064E971E089E999E00E945E1D18A619A612
:103B90001AA61BA6DF91CF911F910F91FF90BF90A6
:103BA000AF909F908F900895CF93DF9300D0CDB7C3
:103BB000DEB721E048E069E07DE380E090E00E942C
:103BC000691D9E012F5F3F4F4CE250E065E779E0B1
:103BD00085E599E00E945F10882361F01F928F9322
:103BE00089E991E09F938F930E9441200F900F905D
:103BF0000F900F9089819A818C32910561F09F938B
:103C00008F938AEB91E09F938F930E9441200F90B6
:103C10000F900F900F9081E080931A030F900F90F8
:103C2000DF91CF9108951F93CF93DF9300D0CDB74D
:103C3000DEB79E012F5F3F4F4CE250E065E779E031
:103C400085E599E00E94230F182F882361F01F92C9
:103C50008F9380EE91E09F938F930E9441200F906D
:103C60000F900F900F9089819A818C32910561F0AD
:103C70009F938F9380E092E09F938F930E944120C7
:103C80000F900F900F900F9081E090E029813A8182
:103C90002C32310511F480E090E0812B892B49F41E
:103CA00060919D0970919E0980919F099091A00952
:103CB00003C060E070E0CB010F900F90DF91CF91D7
:103CC0001F910895CF93DF93CDB7DEB72A970FB634
:103CD000F894DEBF0FBECDBF80911B0390911C03F3
:103CE000A0911D03B0911E038B839C83AD83BE8383
:103CF0008496A11DB11D8F839887A987BA8744E058
:103D000050E060E070E085E599E00E94B5128823FC
:103D100061F01F928F9386E292E09F938F930E94AF
:103D200041200F900F900F900F909E012F5F3F4FFB
:103D300044E050E0BE01695F7F4F85E599E00E9455
:103D40005F10882361F01F928F9389E991E09F9320
:103D50008F930E9441200F900F900F900F908981B8
:103D60009A818430910561F09F938F9387E492E06C
:103D70009F938F930E9441200F900F900F900F9070
:103D800048E250E060E070E085E599E00E94B512FD
:103D9000882361F01F928F9386E292E09F938F9326
:103DA0000E9441200F900F900F900F909E012F5F67
:103DB0003F4F44E050E0BE016D5F7F4F85E599E0E5
:103DC0000E945F10882361F01F928F9389E991E030
:103DD0009F938F930E9441200F900F900F900F9010
:103DE00089819A818430910561F09F938F9387E454
:103DF00092E09F938F930E9441200F900F900F901D
:103E00000F902A960FB6F894DEBF0FBECDBFDF919C
:103E1000CF91089541E06CE672E087E297E00E945E
:103E2000920B882361F01F928F938EE692E09F930E
:103E30008F930E9441200F900F900F900F90089544
:103E40004BE06FE872E085E599E00E94E50B88237E
:103E500061F01F928F938AE992E09F938F930E9463
:103E600041200F900F900F900F900E94D41D109240
:103E70001B0310921C0310921D0310921E03089541
:103E800041E06FE872E085E599E00E94E50B882348
:103E900061F01F928F938AE992E09F938F930E9423
:103EA00041200F900F900F900F900E94131E0895C5
:103EB00080911A03882321F010921A030E94621E37
:103EC00085E599E00E94A412882361F01F928F93E8
:103ED0008AEB92E09F938F930E9441200F900F9066
:103EE0000F900F9008950F931F93CF93DF9300D0FF
:103EF000CDB7DEB78B019E012F5F3F4FAB01BC01F9
:103F000085E599E00E945F10882361F01F928F93EE
:103F100089E991E09F938F930E9441200F900F9029
:103F20000F900F9089819A810817190781F01F93CC
:103F30000F939F938F938BED92E09F938F930E94AB
:103F400041200F900F900F900F900F900F90809145
:103F50001B0390911C03A0911D03B0911E032981A6
:103F60003A81820F931FA11DB11D80931B03909373
:103F70001C03A0931D03B0931E030F900F90DF91BD
:103F8000CF911F910F9108950F931F93CF93DF93BC
:103F900000D0CDB7DEB78B019E012F5F3F4FAB0145
:103FA000BC0185E599E00E94230F882361F01F92F0
:103FB0008F9389E991E09F938F930E9441200F9006
:103FC0000F900F900F9089819A810817190781F03F
:103FD0001F930F939F938F938BED92E09F938F93FB
:103FE0000E9441200F900F900F900F900F900F9014
:103FF0000F900F90DF91CF911F910F910895A1E243
:104000001A2EAA1BBB1BFD010DC0AA1FBB1FEE1F52
:10401000FF1FA217B307E407F50720F0A21BB30B9D
:10402000E40BF50B661F771F881F991F1A9469F719
:1040300060957095809590959B01AC01BD01CF0175
:104040000895EE0FFF1F0590F491E02D09940E9452
:104050003220A59F900DB49F900DA49F800D911DBF
:1040600011240895A29FB001B39FC001A39F700DBA
:10407000811D1124911DB29F700D811D1124911D70
:104080000895A0E0B0E0E7E4F0E20C942823AE014C
:104090004B5F5F4FFA0161917191AF018091A3096C
:1040A0009091A4090E948720E2E00C9444230F938E
:1040B0001F93CF93DF93E091A309F091A40923818B
:1040C00021FF1BC08C01D0E0C0E0F80181918F017D
:1040D0006091A3097091A409DB011896ED91FC9100
:1040E0001997882331F00995892B79F3DFEFCFEF0A
:1040F000ECCF8AE00995892B19F08FEF9FEF02C072
:104100008D2F9C2FDF91CF911F910F910895ABE0E0
:10411000B0E0EDE8F0E20C9418236C017B018A0119
:10412000FC0117821682838181FFCCC1CE010196EA
:104130003C01F6019381F70193FD859193FF8191F5
:104140007F01882309F4BAC1853239F493FD859142
:1041500093FF81917F01853229F4B60190E00E949E
:104160007E22E7CF912C212C312CFFE1F315D8F0E2
:104170008B3279F038F4803279F08332A1F4232D38
:1041800020611DC08D3261F0803369F4232D2160E0
:1041900016C0832D8260382EE32DE4603E2E2AC0A7
:1041A000F32DF8601DC037FC2DC020ED280F2A30FC
:1041B00040F08E32B9F436FC81C1232D2064322EBA
:1041C00019C036FE06C08AE0989E200D1124922E5A
:1041D00011C0EAE02E9E200D1124222EF32DF06254
:1041E0003F2E08C08C3621F4832D8068382E02C003
:1041F000883641F4F70193FD859193FF81917F010A
:104200008111B3CF982F9F7D9554933028F40C5F84
:104210001F4F9FE399830DC0833631F0833771F0D0
:10422000833509F059C021C0F801808189830E5F70
:104230001F4F88248394912C530113C02801F2E06E
:104240004F0E511CF801A080B18036FE03C0692DCD
:1042500070E002C06FEF7FEFC5010E9473224C0136
:104260008201F32DFF773F2E16C0280122E0420E77
:10427000511CF801A080B18036FE03C0692D70E0AA
:1042800002C06FEF7FEFC5010E9468224C01F32D41
:10429000F0683F2E820133FC1BC0822D90E088160F
:1042A0009906B0F4B60180E290E00E947E222A9442
:1042B000F4CFF50137FC859137FE81915F01B6019E
:1042C00090E00E947E2221102A9421E0821A910817
:1042D0008114910471F7E8C0843611F0893641F5F4
:1042E000F80137FE07C060817181828193810C5F84
:1042F0001F4F08C060817181072E000C880B990B3D
:104300000E5F1F4FF32DFF763F2E97FF09C090954C
:104310008095709561957F4F8F4F9F4FF0683F2E2E
:104320002AE030E0A3010E94BA22882E861845C0F8
:10433000853731F4232D2F7EB22E2AE030E025C0C0
:10434000932D997FB92E8F36C1F018F4883579F006
:10435000B5C0803719F0883721F0B0C0E92FE0618F
:10436000BE2EB4FE0DC0FB2DF460BF2E09C034FE7E
:104370000AC0292F2660B22E06C028E030E005C012
:1043800020E130E002C020E132E0F801B7FE07C0D2
:1043900060817181828193810C5F1F4F06C06081B3
:1043A000718180E090E00E5F1F4FA3010E94BA224E
:1043B000882E8618FB2DFF773F2E36FE0DC0232D4D
:1043C0002E7FA22E891458F434FE0BC032FC09C093
:1043D000832D8E7EA82E05C0B82CA32C03C0B82C2C
:1043E00001C0B92CA4FE0FC0FE01E80DF11D8081B3
:1043F000803321F49A2D997EA92E09C0A2FE06C011
:10440000B394B39404C08A2D867809F0B394A3FCC6
:1044100011C0A0FE06C0B21488F4280C922C9B1880
:104420000EC0B21460F4B60180E290E00E947E22D9
:10443000B394F7CFB21418F42B1802C0982C212C87
:10444000A4FE10C0B60180E390E00E947E22A2FE8E
:1044500017C0A1FC03C088E790E002C088E590E0A7
:10446000B6010CC08A2D867859F0A1FE02C08BE2FD
:1044700001C080E2A7FC8DE2B60190E00E947E229E
:10448000891438F4B60180E390E00E947E229A9469
:10449000F7CF8A94F301E80DF11D8081B60190E019
:1044A0000E947E228110F5CF222009F442CEB6016F
:1044B00080E290E00E947E222A94F6CFF601868167
:1044C000978102C08FEF9FEF2B96E2E10C9434238B
:1044D000FC010590615070400110D8F780959095CF
:1044E0008E0F9F1F0895FC016150704001900110D4
:1044F000D8F7809590958E0F9F1F08950F931F9367
:10450000CF93DF93FB01238121FD03C08FEF9FEF4A
:104510002CC022FF16C04681578124813581421765
:10452000530744F4A081B1819D012F5F3F4F318338
:1045300020838C93268137812F5F3F4F37832683DB
:1045400014C08B01EC01FB010084F185E02D09957D
:10455000892BE1F6D80116968D919C9117970196BB
:1045600017969C938E931697CE01DF91CF911F9152
:104570000F910895FA01AA27283051F1203181F1D5
:10458000E8946F936E7F6E5F7F4F8F4F9F4FAF4F5B
:10459000B1E03ED0B4E03CD0670F781F891F9A1F6E
:1045A000A11D680F791F8A1F911DA11D6A0F711D22
:1045B000811D911DA11D20D009F468943F912AE02E
:1045C000269F11243019305D3193DEF6CF01089516
:1045D000462F4770405D4193B3E00FD0C9F7F6CF47
:1045E000462F4F70405D4A3318F0495D31FD40520F
:1045F000419302D0A9F7EACFB4E0A69597958795A5
:1046000077956795BA95C9F7009761057105089583
:104610009B01AC010A2E069457954795379527952F
:10462000BA95C9F7620F731F841F951FA01D0895C7
:104630002F923F924F925F926F927F928F929F92B2
:10464000AF92BF92CF92DF92EF92FF920F931F93A0
:10465000CF93DF93CDB7DEB7CA1BDB0B0FB6F89451
:10466000DEBF0FBECDBF09942A88398848885F8491
:104670006E847D848C849B84AA84B984C884DF8002
:10468000EE80FD800C811B81AA81B981CE0FD11DE6
:104690000FB6F894DEBF0FBECDBFED010895F894BC
:0246A000FFCF4A
:1046A2002507250525030100E100000000080000A0
:1046B200000300000000051DFE1C0000851E9C2258
:1046C2002A2B2C3A3B3C3D3E3F5B5D7C7F00256CB8
:1046D200750A005265636F7264696E672E2E2E0032
:1046E200506C6179696E672E2E2E00444F4E452123
:1046F200004552524F523A205374617465206D61E5
:104702006368696E6520696E206D61696E20656EF1
:10471200746572656420696E76616C696420737475
:10472200617465210052494646005741564500666C
:104732006D7420006461746100665F7772697465EC
:104742002072657475726E6564206572726F722074
:10475200636F64653A2025640A00665F7772697444
:10476200652077726F7465202564206F662034346B
:1047720020627974657320746F2066696C652E00FF
:10478200665F726561642072657475726E6564201D
:104792006572726F7220636F64653A2025640A0045
:1047A200665F726561642072656164202564206FB2
:1047B200662034342062797465732066726F6D20CE
:1047C20066696C652E00665F6C7365656B20726549
:1047D2007475726E6564206572726F7220636F64A5
:1047E200653A2025640A00665F77726974652077EE
:1047F200726F7465202564206F662034206279749C
:10480200657320746F2066696C652E002F00665FE9
:104812006D6F756E742072657475726E6564206555
:1048220072726F7220636F64653A2025640A0045D4
:1048320047423234302E57415600665F6F70656EC4
:104842002072657475726E6564206572726F722073
:10485200636F64653A2025640A00665F636C6F7358
:10486200652072657475726E6564206572726F720E
:1048720020636F64653A2025640A00665F77726977
:1048820074652077726F7465202564206F66202519
:104892006420627974657320746F2066696C652E7A
:0248A200000014
:00000001FF
